{
  "contractName": "Voting",
  "abi": [
    {
      "anonymous": false,
      "inputs": [
        {
          "indexed": true,
          "internalType": "address",
          "name": "previousOwner",
          "type": "address"
        },
        {
          "indexed": true,
          "internalType": "address",
          "name": "newOwner",
          "type": "address"
        }
      ],
      "name": "OwnershipTransferred",
      "type": "event"
    },
    {
      "anonymous": false,
      "inputs": [
        {
          "indexed": false,
          "internalType": "uint256",
          "name": "proposalId",
          "type": "uint256"
        }
      ],
      "name": "ProposalRegistered",
      "type": "event"
    },
    {
      "anonymous": false,
      "inputs": [
        {
          "indexed": false,
          "internalType": "address",
          "name": "voter",
          "type": "address"
        },
        {
          "indexed": false,
          "internalType": "uint256",
          "name": "proposalId",
          "type": "uint256"
        }
      ],
      "name": "Voted",
      "type": "event"
    },
    {
      "anonymous": false,
      "inputs": [
        {
          "indexed": false,
          "internalType": "address",
          "name": "voterAddress",
          "type": "address"
        }
      ],
      "name": "VoterRegistered",
      "type": "event"
    },
    {
      "anonymous": false,
      "inputs": [
        {
          "indexed": false,
          "internalType": "enum Voting.WorkflowStatus",
          "name": "previousStatus",
          "type": "uint8"
        },
        {
          "indexed": false,
          "internalType": "enum Voting.WorkflowStatus",
          "name": "newStatus",
          "type": "uint8"
        }
      ],
      "name": "WorkflowStatusChange",
      "type": "event"
    },
    {
      "inputs": [],
      "name": "owner",
      "outputs": [
        {
          "internalType": "address",
          "name": "",
          "type": "address"
        }
      ],
      "stateMutability": "view",
      "type": "function",
      "constant": true
    },
    {
      "inputs": [],
      "name": "renounceOwnership",
      "outputs": [],
      "stateMutability": "nonpayable",
      "type": "function"
    },
    {
      "inputs": [
        {
          "internalType": "address",
          "name": "newOwner",
          "type": "address"
        }
      ],
      "name": "transferOwnership",
      "outputs": [],
      "stateMutability": "nonpayable",
      "type": "function"
    },
    {
      "inputs": [],
      "name": "winningProposalID",
      "outputs": [
        {
          "internalType": "uint256",
          "name": "",
          "type": "uint256"
        }
      ],
      "stateMutability": "view",
      "type": "function",
      "constant": true
    },
    {
      "inputs": [],
      "name": "workflowStatus",
      "outputs": [
        {
          "internalType": "enum Voting.WorkflowStatus",
          "name": "",
          "type": "uint8"
        }
      ],
      "stateMutability": "view",
      "type": "function",
      "constant": true
    },
    {
      "inputs": [
        {
          "internalType": "address",
          "name": "_addr",
          "type": "address"
        }
      ],
      "name": "getVoter",
      "outputs": [
        {
          "components": [
            {
              "internalType": "bool",
              "name": "isRegistered",
              "type": "bool"
            },
            {
              "internalType": "bool",
              "name": "hasVoted",
              "type": "bool"
            },
            {
              "internalType": "uint256",
              "name": "votedProposalId",
              "type": "uint256"
            }
          ],
          "internalType": "struct Voting.Voter",
          "name": "",
          "type": "tuple"
        }
      ],
      "stateMutability": "view",
      "type": "function",
      "constant": true
    },
    {
      "inputs": [
        {
          "internalType": "uint256",
          "name": "_id",
          "type": "uint256"
        }
      ],
      "name": "getOneProposal",
      "outputs": [
        {
          "components": [
            {
              "internalType": "string",
              "name": "description",
              "type": "string"
            },
            {
              "internalType": "uint256",
              "name": "voteCount",
              "type": "uint256"
            }
          ],
          "internalType": "struct Voting.Proposal",
          "name": "",
          "type": "tuple"
        }
      ],
      "stateMutability": "view",
      "type": "function",
      "constant": true
    },
    {
      "inputs": [
        {
          "internalType": "address",
          "name": "_addr",
          "type": "address"
        }
      ],
      "name": "addVoter",
      "outputs": [],
      "stateMutability": "nonpayable",
      "type": "function"
    },
    {
      "inputs": [
        {
          "internalType": "string",
          "name": "_desc",
          "type": "string"
        }
      ],
      "name": "addProposal",
      "outputs": [],
      "stateMutability": "nonpayable",
      "type": "function"
    },
    {
      "inputs": [
        {
          "internalType": "uint256",
          "name": "_id",
          "type": "uint256"
        }
      ],
      "name": "setVote",
      "outputs": [],
      "stateMutability": "nonpayable",
      "type": "function"
    },
    {
      "inputs": [],
      "name": "startProposalsRegistering",
      "outputs": [],
      "stateMutability": "nonpayable",
      "type": "function"
    },
    {
      "inputs": [],
      "name": "endProposalsRegistering",
      "outputs": [],
      "stateMutability": "nonpayable",
      "type": "function"
    },
    {
      "inputs": [],
      "name": "startVotingSession",
      "outputs": [],
      "stateMutability": "nonpayable",
      "type": "function"
    },
    {
      "inputs": [],
      "name": "endVotingSession",
      "outputs": [],
      "stateMutability": "nonpayable",
      "type": "function"
    },
    {
      "inputs": [],
      "name": "tallyVotes",
      "outputs": [],
      "stateMutability": "nonpayable",
      "type": "function"
    }
  ],
  "bytecode": "0x608060405234801561001057600080fd5b5061002d61002261003260201b60201c565b61003a60201b60201c565b6100fe565b600033905090565b60008060009054906101000a900473ffffffffffffffffffffffffffffffffffffffff169050816000806101000a81548173ffffffffffffffffffffffffffffffffffffffff021916908373ffffffffffffffffffffffffffffffffffffffff1602179055508173ffffffffffffffffffffffffffffffffffffffff168173ffffffffffffffffffffffffffffffffffffffff167f8be0079c531659141344cd1fd0a4f28419497f9722a3daafe3b4186f6b6457e060405160405180910390a35050565b61232a806200010e6000396000f3fe608060405234801561001057600080fd5b50600436106100f55760003560e01c8063a7bfab1611610097578063d4f50f9811610066578063d4f50f98146101ee578063ee74c6781461021e578063f2fde38b14610228578063f4ab9adf14610244576100f5565b8063a7bfab16146101b2578063bdc01431146101bc578063c7038a4e146101da578063c88af42f146101e4576100f5565b8063715018a6116100d3578063715018a61461013c5780638da5cb5b14610146578063a1edffa214610164578063a2788cce14610182576100f5565b8063230796ae146100fa5780632fdae3c514610116578063378a217814610132575b600080fd5b610114600480360381019061010f9190611471565b610260565b005b610130600480360381019061012b91906115e4565b61055b565b005b61013a6107e6565b005b610144610953565b005b61014e610967565b60405161015b919061166e565b60405180910390f35b61016c610990565b6040516101799190611700565b60405180910390f35b61019c60048036038101906101979190611471565b6109a3565b6040516101a991906117ef565b60405180910390f35b6101ba610b0a565b005b6101c4610bf0565b6040516101d19190611820565b60405180910390f35b6101e2610bf6565b005b6101ec610cdc565b005b61020860048036038101906102039190611867565b610dc1565b60405161021591906118f1565b60405180910390f35b610226610ee9565b005b610242600480360381019061023d9190611867565b610fcf565b005b61025e60048036038101906102599190611867565b611052565b005b600460003373ffffffffffffffffffffffffffffffffffffffff1673ffffffffffffffffffffffffffffffffffffffff16815260200190815260200160002060000160009054906101000a900460ff166102ef576040517f08c379a00000000000000000000000000000000000000000000000000000000081526004016102e690611969565b60405180910390fd5b6003600581111561030357610302611689565b5b600260009054906101000a900460ff16600581111561032557610324611689565b5b14610365576040517f08c379a000000000000000000000000000000000000000000000000000000000815260040161035c906119fb565b60405180910390fd5b60011515600460003373ffffffffffffffffffffffffffffffffffffffff1673ffffffffffffffffffffffffffffffffffffffff16815260200190815260200160002060000160019054906101000a900460ff161515036103fb576040517f08c379a00000000000000000000000000000000000000000000000000000000081526004016103f290611a67565b60405180910390fd5b6003805490508110610442576040517f08c379a000000000000000000000000000000000000000000000000000000000815260040161043990611ad3565b60405180910390fd5b80600460003373ffffffffffffffffffffffffffffffffffffffff1673ffffffffffffffffffffffffffffffffffffffff168152602001908152602001600020600101819055506001600460003373ffffffffffffffffffffffffffffffffffffffff1673ffffffffffffffffffffffffffffffffffffffff16815260200190815260200160002060000160016101000a81548160ff021916908315150217905550600381815481106104f8576104f7611af3565b5b9060005260206000209060020201600101600081548092919061051a90611b51565b91905055507f4d99b957a2bc29a30ebd96a7be8e68fe50a3c701db28a91436490b7d53870ca43382604051610550929190611b99565b60405180910390a150565b600460003373ffffffffffffffffffffffffffffffffffffffff1673ffffffffffffffffffffffffffffffffffffffff16815260200190815260200160002060000160009054906101000a900460ff166105ea576040517f08c379a00000000000000000000000000000000000000000000000000000000081526004016105e190611969565b60405180910390fd5b600560038054905010610632576040517f08c379a000000000000000000000000000000000000000000000000000000000815260040161062990611c34565b60405180910390fd5b6001600581111561064657610645611689565b5b600260009054906101000a900460ff16600581111561066857610667611689565b5b146106a8576040517f08c379a000000000000000000000000000000000000000000000000000000000815260040161069f90611ca0565b60405180910390fd5b6040516020016106b790611ce6565b60405160208183030381529060405280519060200120816040516020016106de9190611d3f565b6040516020818303038152906040528051906020012003610734576040517f08c379a000000000000000000000000000000000000000000000000000000000815260040161072b90611dd3565b60405180910390fd5b61073c611345565b8181600001819052506003819080600181540180825580915050600190039060005260206000209060020201600090919091909150600082015181600001908051906020019061078d92919061135f565b506020820151816001015550507f92e393e9b54e2f801d3ea4beb0c5e71a21cc34a5d34b77d0fb8a3aa1650dc18f60016003805490506107cd9190611df3565b6040516107da9190611820565b60405180910390a15050565b6107ee6111fb565b6004600581111561080257610801611689565b5b600260009054906101000a900460ff16600581111561082457610823611689565b5b14610864576040517f08c379a000000000000000000000000000000000000000000000000000000000815260040161085b90611e99565b60405180910390fd5b600080600090505b6003805490508110156108e2576003828154811061088d5761088c611af3565b5b906000526020600020906002020160010154600382815481106108b3576108b2611af3565b5b90600052602060002090600202016001015411156108cf578091505b80806108da90611b51565b91505061086c565b50806001819055506005600260006101000a81548160ff021916908360058111156109105761090f611689565b5b02179055507f0a97a4ee45751e2abf3e4fc8946939630b11b371ea8ae39ccdc3056e98f5cc3f60046005604051610948929190611eb9565b60405180910390a150565b61095b6111fb565b6109656000611279565b565b60008060009054906101000a900473ffffffffffffffffffffffffffffffffffffffff16905090565b600260009054906101000a900460ff1681565b6109ab611345565b600460003373ffffffffffffffffffffffffffffffffffffffff1673ffffffffffffffffffffffffffffffffffffffff16815260200190815260200160002060000160009054906101000a900460ff16610a3a576040517f08c379a0000000000000000000000000000000000000000000000000000000008152600401610a3190611969565b60405180910390fd5b60038281548110610a4e57610a4d611af3565b5b9060005260206000209060020201604051806040016040529081600082018054610a7790611f11565b80601f0160208091040260200160405190810160405280929190818152602001828054610aa390611f11565b8015610af05780601f10610ac557610100808354040283529160200191610af0565b820191906000526020600020905b815481529060010190602001808311610ad357829003601f168201915b505050505081526020016001820154815250509050919050565b610b126111fb565b60036005811115610b2657610b25611689565b5b600260009054906101000a900460ff166005811115610b4857610b47611689565b5b14610b88576040517f08c379a0000000000000000000000000000000000000000000000000000000008152600401610b7f906119fb565b60405180910390fd5b6004600260006101000a81548160ff02191690836005811115610bae57610bad611689565b5b02179055507f0a97a4ee45751e2abf3e4fc8946939630b11b371ea8ae39ccdc3056e98f5cc3f60036004604051610be6929190611eb9565b60405180910390a1565b60015481565b610bfe6111fb565b60006005811115610c1257610c11611689565b5b600260009054906101000a900460ff166005811115610c3457610c33611689565b5b14610c74576040517f08c379a0000000000000000000000000000000000000000000000000000000008152600401610c6b90611fb4565b60405180910390fd5b6001600260006101000a81548160ff02191690836005811115610c9a57610c99611689565b5b02179055507f0a97a4ee45751e2abf3e4fc8946939630b11b371ea8ae39ccdc3056e98f5cc3f60006001604051610cd2929190611eb9565b60405180910390a1565b610ce46111fb565b60016005811115610cf857610cf7611689565b5b600260009054906101000a900460ff166005811115610d1a57610d19611689565b5b14610d5a576040517f08c379a0000000000000000000000000000000000000000000000000000000008152600401610d5190612046565b60405180910390fd5b60028060006101000a81548160ff02191690836005811115610d7f57610d7e611689565b5b02179055507f0a97a4ee45751e2abf3e4fc8946939630b11b371ea8ae39ccdc3056e98f5cc3f60016002604051610db7929190611eb9565b60405180910390a1565b610dc96113e5565b600460003373ffffffffffffffffffffffffffffffffffffffff1673ffffffffffffffffffffffffffffffffffffffff16815260200190815260200160002060000160009054906101000a900460ff16610e58576040517f08c379a0000000000000000000000000000000000000000000000000000000008152600401610e4f90611969565b60405180910390fd5b600460008373ffffffffffffffffffffffffffffffffffffffff1673ffffffffffffffffffffffffffffffffffffffff1681526020019081526020016000206040518060600160405290816000820160009054906101000a900460ff161515151581526020016000820160019054906101000a900460ff161515151581526020016001820154815250509050919050565b610ef16111fb565b60026005811115610f0557610f04611689565b5b600260009054906101000a900460ff166005811115610f2757610f26611689565b5b14610f67576040517f08c379a0000000000000000000000000000000000000000000000000000000008152600401610f5e906120d8565b60405180910390fd5b6003600260006101000a81548160ff02191690836005811115610f8d57610f8c611689565b5b02179055507f0a97a4ee45751e2abf3e4fc8946939630b11b371ea8ae39ccdc3056e98f5cc3f60026003604051610fc5929190611eb9565b60405180910390a1565b610fd76111fb565b600073ffffffffffffffffffffffffffffffffffffffff168173ffffffffffffffffffffffffffffffffffffffff1603611046576040517f08c379a000000000000000000000000000000000000000000000000000000000815260040161103d9061216a565b60405180910390fd5b61104f81611279565b50565b61105a6111fb565b6000600581111561106e5761106d611689565b5b600260009054906101000a900460ff1660058111156110905761108f611689565b5b146110d0576040517f08c379a00000000000000000000000000000000000000000000000000000000081526004016110c7906121fc565b60405180910390fd5b60011515600460008373ffffffffffffffffffffffffffffffffffffffff1673ffffffffffffffffffffffffffffffffffffffff16815260200190815260200160002060000160009054906101000a900460ff16151503611166576040517f08c379a000000000000000000000000000000000000000000000000000000000815260040161115d90612268565b60405180910390fd5b6001600460008373ffffffffffffffffffffffffffffffffffffffff1673ffffffffffffffffffffffffffffffffffffffff16815260200190815260200160002060000160006101000a81548160ff0219169083151502179055507fb6be2187d059cc2a55fe29e0e503b566e1e0f8c8780096e185429350acffd3dd816040516111f0919061166e565b60405180910390a150565b61120361133d565b73ffffffffffffffffffffffffffffffffffffffff16611221610967565b73ffffffffffffffffffffffffffffffffffffffff1614611277576040517f08c379a000000000000000000000000000000000000000000000000000000000815260040161126e906122d4565b60405180910390fd5b565b60008060009054906101000a900473ffffffffffffffffffffffffffffffffffffffff169050816000806101000a81548173ffffffffffffffffffffffffffffffffffffffff021916908373ffffffffffffffffffffffffffffffffffffffff1602179055508173ffffffffffffffffffffffffffffffffffffffff168173ffffffffffffffffffffffffffffffffffffffff167f8be0079c531659141344cd1fd0a4f28419497f9722a3daafe3b4186f6b6457e060405160405180910390a35050565b600033905090565b604051806040016040528060608152602001600081525090565b82805461136b90611f11565b90600052602060002090601f01602090048101928261138d57600085556113d4565b82601f106113a657805160ff19168380011785556113d4565b828001600101855582156113d4579182015b828111156113d35782518255916020019190600101906113b8565b5b5090506113e1919061140a565b5090565b6040518060600160405280600015158152602001600015158152602001600081525090565b5b8082111561142357600081600090555060010161140b565b5090565b6000604051905090565b600080fd5b600080fd5b6000819050919050565b61144e8161143b565b811461145957600080fd5b50565b60008135905061146b81611445565b92915050565b60006020828403121561148757611486611431565b5b60006114958482850161145c565b91505092915050565b600080fd5b600080fd5b6000601f19601f8301169050919050565b7f4e487b7100000000000000000000000000000000000000000000000000000000600052604160045260246000fd5b6114f1826114a8565b810181811067ffffffffffffffff821117156115105761150f6114b9565b5b80604052505050565b6000611523611427565b905061152f82826114e8565b919050565b600067ffffffffffffffff82111561154f5761154e6114b9565b5b611558826114a8565b9050602081019050919050565b82818337600083830152505050565b600061158761158284611534565b611519565b9050828152602081018484840111156115a3576115a26114a3565b5b6115ae848285611565565b509392505050565b600082601f8301126115cb576115ca61149e565b5b81356115db848260208601611574565b91505092915050565b6000602082840312156115fa576115f9611431565b5b600082013567ffffffffffffffff81111561161857611617611436565b5b611624848285016115b6565b91505092915050565b600073ffffffffffffffffffffffffffffffffffffffff82169050919050565b60006116588261162d565b9050919050565b6116688161164d565b82525050565b6000602082019050611683600083018461165f565b92915050565b7f4e487b7100000000000000000000000000000000000000000000000000000000600052602160045260246000fd5b600681106116c9576116c8611689565b5b50565b60008190506116da826116b8565b919050565b60006116ea826116cc565b9050919050565b6116fa816116df565b82525050565b600060208201905061171560008301846116f1565b92915050565b600081519050919050565b600082825260208201905092915050565b60005b8381101561175557808201518184015260208101905061173a565b83811115611764576000848401525b50505050565b60006117758261171b565b61177f8185611726565b935061178f818560208601611737565b611798816114a8565b840191505092915050565b6117ac8161143b565b82525050565b600060408301600083015184820360008601526117cf828261176a565b91505060208301516117e460208601826117a3565b508091505092915050565b6000602082019050818103600083015261180981846117b2565b905092915050565b61181a8161143b565b82525050565b60006020820190506118356000830184611811565b92915050565b6118448161164d565b811461184f57600080fd5b50565b6000813590506118618161183b565b92915050565b60006020828403121561187d5761187c611431565b5b600061188b84828501611852565b91505092915050565b60008115159050919050565b6118a981611894565b82525050565b6060820160008201516118c560008501826118a0565b5060208201516118d860208501826118a0565b5060408201516118eb60408501826117a3565b50505050565b600060608201905061190660008301846118af565b92915050565b600082825260208201905092915050565b7f596f75277265206e6f74206120766f7465720000000000000000000000000000600082015250565b600061195360128361190c565b915061195e8261191d565b602082019050919050565b6000602082019050818103600083015261198281611946565b9050919050565b7f566f74696e672073657373696f6e20686176656e74207374617274656420796560008201527f7400000000000000000000000000000000000000000000000000000000000000602082015250565b60006119e560218361190c565b91506119f082611989565b604082019050919050565b60006020820190508181036000830152611a14816119d8565b9050919050565b7f596f75206861766520616c726561647920766f74656400000000000000000000600082015250565b6000611a5160168361190c565b9150611a5c82611a1b565b602082019050919050565b60006020820190508181036000830152611a8081611a44565b9050919050565b7f50726f706f73616c206e6f7420666f756e640000000000000000000000000000600082015250565b6000611abd60128361190c565b9150611ac882611a87565b602082019050919050565b60006020820190508181036000830152611aec81611ab0565b9050919050565b7f4e487b7100000000000000000000000000000000000000000000000000000000600052603260045260246000fd5b7f4e487b7100000000000000000000000000000000000000000000000000000000600052601160045260246000fd5b6000611b5c8261143b565b91507fffffffffffffffffffffffffffffffffffffffffffffffffffffffffffffffff8203611b8e57611b8d611b22565b5b600182019050919050565b6000604082019050611bae600083018561165f565b611bbb6020830184611811565b9392505050565b7f4c61206c696d6974652064652070726f706f736974696f6e732065737420617460008201527f7465696e74650000000000000000000000000000000000000000000000000000602082015250565b6000611c1e60268361190c565b9150611c2982611bc2565b604082019050919050565b60006020820190508181036000830152611c4d81611c11565b9050919050565b7f50726f706f73616c7320617265206e6f7420616c6c6f77656420796574000000600082015250565b6000611c8a601d8361190c565b9150611c9582611c54565b602082019050919050565b60006020820190508181036000830152611cb981611c7d565b9050919050565b50565b6000611cd060008361190c565b9150611cdb82611cc0565b600082019050919050565b60006020820190508181036000830152611cff81611cc3565b9050919050565b6000611d118261171b565b611d1b818561190c565b9350611d2b818560208601611737565b611d34816114a8565b840191505092915050565b60006020820190508181036000830152611d598184611d06565b905092915050565b7f566f7573206e6520706f7576657a20706173206e65207269656e2070726f706f60008201527f7365720000000000000000000000000000000000000000000000000000000000602082015250565b6000611dbd60238361190c565b9150611dc882611d61565b604082019050919050565b60006020820190508181036000830152611dec81611db0565b9050919050565b6000611dfe8261143b565b9150611e098361143b565b925082821015611e1c57611e1b611b22565b5b828203905092915050565b7f43757272656e7420737461747573206973206e6f7420766f74696e672073657360008201527f73696f6e20656e64656400000000000000000000000000000000000000000000602082015250565b6000611e83602a8361190c565b9150611e8e82611e27565b604082019050919050565b60006020820190508181036000830152611eb281611e76565b9050919050565b6000604082019050611ece60008301856116f1565b611edb60208301846116f1565b9392505050565b7f4e487b7100000000000000000000000000000000000000000000000000000000600052602260045260246000fd5b60006002820490506001821680611f2957607f821691505b602082108103611f3c57611f3b611ee2565b5b50919050565b7f5265676973746572696e672070726f706f73616c732063616e7420626520737460008201527f6172746564206e6f770000000000000000000000000000000000000000000000602082015250565b6000611f9e60298361190c565b9150611fa982611f42565b604082019050919050565b60006020820190508181036000830152611fcd81611f91565b9050919050565b7f5265676973746572696e672070726f706f73616c7320686176656e742073746160008201527f7274656420796574000000000000000000000000000000000000000000000000602082015250565b600061203060288361190c565b915061203b82611fd4565b604082019050919050565b6000602082019050818103600083015261205f81612023565b9050919050565b7f5265676973746572696e672070726f706f73616c73207068617365206973206e60008201527f6f742066696e6973686564000000000000000000000000000000000000000000602082015250565b60006120c2602b8361190c565b91506120cd82612066565b604082019050919050565b600060208201905081810360008301526120f1816120b5565b9050919050565b7f4f776e61626c653a206e6577206f776e657220697320746865207a65726f206160008201527f6464726573730000000000000000000000000000000000000000000000000000602082015250565b600061215460268361190c565b915061215f826120f8565b604082019050919050565b6000602082019050818103600083015261218381612147565b9050919050565b7f566f7465727320726567697374726174696f6e206973206e6f74206f70656e2060008201527f7965740000000000000000000000000000000000000000000000000000000000602082015250565b60006121e660238361190c565b91506121f18261218a565b604082019050919050565b60006020820190508181036000830152612215816121d9565b9050919050565b7f416c726561647920726567697374657265640000000000000000000000000000600082015250565b600061225260128361190c565b915061225d8261221c565b602082019050919050565b6000602082019050818103600083015261228181612245565b9050919050565b7f4f776e61626c653a2063616c6c6572206973206e6f7420746865206f776e6572600082015250565b60006122be60208361190c565b91506122c982612288565b602082019050919050565b600060208201905081810360008301526122ed816122b1565b905091905056fea26469706673582212205ed18493cab55fc0026eb0db51e030f80531110ad71e8cf775a805faa16f920364736f6c634300080d0033",
  "immutableReferences": {},
  "source": "// SPDX-License-Identifier: MIT\n\npragma solidity 0.8.13;\nimport \"../node_modules/@openzeppelin/contracts/access/Ownable.sol\";\n/// @title Systme de vote, cours Alyra\n/// @author Stphane Moriggi\n/// @custom:experimental This is an experimental contract.\n\ncontract Voting is Ownable {\n\n    uint public winningProposalID;\n\n    struct Voter {\n        bool isRegistered;\n        bool hasVoted;\n        uint votedProposalId;\n    }\n\n    struct Proposal {\n        string description;\n        uint voteCount;\n    }\n\n    enum  WorkflowStatus {\n        RegisteringVoters,\n        ProposalsRegistrationStarted,\n        ProposalsRegistrationEnded,\n        VotingSessionStarted,\n        VotingSessionEnded,\n        VotesTallied\n    }\n\n    WorkflowStatus public workflowStatus;\n    Proposal[] proposalsArray;\n    mapping (address => Voter) voters;\n\n    event VoterRegistered(address voterAddress);\n    event WorkflowStatusChange(WorkflowStatus previousStatus, WorkflowStatus newStatus);\n    event ProposalRegistered(uint proposalId);\n    event Voted (address voter, uint proposalId);\n\n    modifier onlyVoters() {\n        require(voters[msg.sender].isRegistered, \"You're not a voter\");\n        _;\n    }\n\n    /// @notice calls voter details\n    /// @return Voter\n    /// @param _addr Address of the voter\n    ///  @dev Set address only as voters\n    function getVoter(address _addr) external onlyVoters view returns (Voter memory) {\n        return voters[_addr];\n    }\n\n    /// @notice calls proposal details\n    ///  @return Proposal\n    /// @param _id Id of the proposal\n    ///  @dev This can be triggered by voters whitelisted only\n    function getOneProposal(uint _id) external onlyVoters view returns (Proposal memory) {\n        return proposalsArray[_id];\n    }\n\n    /// @notice add a address to the whitelisted voters\n    /// @param _addr Address of the voter\n    ///  @dev This can be triggered by owner only\n    function addVoter(address _addr) external onlyOwner {\n        require(workflowStatus == WorkflowStatus.RegisteringVoters, 'Voters registration is not open yet');\n        require(voters[_addr].isRegistered != true, 'Already registered');\n\n        voters[_addr].isRegistered = true;\n        emit VoterRegistered(_addr);\n    }\n\n    /// @notice adding proposal to blockchain\n    /// @param _desc string: description of proposal\n    /// @dev Limitation des propositions pour empcher faille DOS. Nombre 5 arbitraire ici.\n    function addProposal(string memory _desc) external onlyVoters {\n        require(proposalsArray.length < 5, 'La limite de propositions est atteinte');\n        require(workflowStatus == WorkflowStatus.ProposalsRegistrationStarted, 'Proposals are not allowed yet');\n        require(keccak256(abi.encode(_desc)) != keccak256(abi.encode(\"\")), 'Vous ne pouvez pas ne rien proposer'); /// facultatif\n\n        Proposal memory proposal;\n        proposal.description = _desc;\n        proposalsArray.push(proposal);\n        emit ProposalRegistered(proposalsArray.length-1);\n    }\n\n    /// @notice register a vote for a proposal\n    /// @param _id int: id of the proposal to vote\n    /// @dev This can be triggered by voters whitelisted only\n    function setVote( uint _id) external onlyVoters {\n        require(workflowStatus == WorkflowStatus.VotingSessionStarted, 'Voting session havent started yet');\n        require(voters[msg.sender].hasVoted != true, 'You have already voted');\n        require(_id < proposalsArray.length, 'Proposal not found'); /// pas oblig, et pas besoin du >0 car uint\n\n        voters[msg.sender].votedProposalId = _id;\n        voters[msg.sender].hasVoted = true;\n        proposalsArray[_id].voteCount++;\n\n        emit Voted(msg.sender, _id);\n    }\n\n    /// @notice move from registering voter to registering proposal status\n    /// @dev This can be triggered by owner only\n    function startProposalsRegistering() external onlyOwner {\n        require(workflowStatus == WorkflowStatus.RegisteringVoters, 'Registering proposals cant be started now');\n        workflowStatus = WorkflowStatus.ProposalsRegistrationStarted;\n        emit WorkflowStatusChange(WorkflowStatus.RegisteringVoters, WorkflowStatus.ProposalsRegistrationStarted);\n    }\n\n    /// @notice move from registering proposals to end registering proposal status\n    /// @dev This can be triggered by owner only\n    function endProposalsRegistering() external onlyOwner {\n        require(workflowStatus == WorkflowStatus.ProposalsRegistrationStarted, 'Registering proposals havent started yet');\n        workflowStatus = WorkflowStatus.ProposalsRegistrationEnded;\n        emit WorkflowStatusChange(WorkflowStatus.ProposalsRegistrationStarted, WorkflowStatus.ProposalsRegistrationEnded);\n    }\n\n    /// @notice move from end registering proposals to voting  status\n    ///  @dev This can be triggered by owner only\n    function startVotingSession() external onlyOwner {\n        require(workflowStatus == WorkflowStatus.ProposalsRegistrationEnded, 'Registering proposals phase is not finished');\n        workflowStatus = WorkflowStatus.VotingSessionStarted;\n        emit WorkflowStatusChange(WorkflowStatus.ProposalsRegistrationEnded, WorkflowStatus.VotingSessionStarted);\n    }\n\n    /// @notice move from voting status to end voting status\n    ///  @dev This can be triggered by owner only\n    function endVotingSession() external onlyOwner {\n        require(workflowStatus == WorkflowStatus.VotingSessionStarted, 'Voting session havent started yet');\n        workflowStatus = WorkflowStatus.VotingSessionEnded;\n        emit WorkflowStatusChange(WorkflowStatus.VotingSessionStarted, WorkflowStatus.VotingSessionEnded);\n    }\n\n    /// @notice count vote then move from end voting status to tally vote status\n    ///  @dev This can be triggered by owner only\n    function tallyVotes() external onlyOwner {\n        require(workflowStatus == WorkflowStatus.VotingSessionEnded, \"Current status is not voting session ended\");\n        uint _winningProposalId;\n        for (uint256 p = 0; p < proposalsArray.length; p++) {\n            if (proposalsArray[p].voteCount > proposalsArray[_winningProposalId].voteCount) {\n                _winningProposalId = p;\n            }\n        }\n        winningProposalID = _winningProposalId;\n\n        workflowStatus = WorkflowStatus.VotesTallied;\n        emit WorkflowStatusChange(WorkflowStatus.VotingSessionEnded, WorkflowStatus.VotesTallied);\n    }\n}",
  "sourcePath": "/home/hag/www/alyra/projet3_dapp/truffle/contracts/Voting.sol",
  "compiler": {
    "name": "solc",
    "version": "0.8.13+commit.abaa5c0e.Emscripten.clang"
  },
  "schemaVersion": "3.4.8",
  "updatedAt": "2022-07-18T11:31:48.824Z",
  "networkType": "ethereum",
  "devdoc": {
    "author": "Stphane Moriggi",
    "custom:experimental": "This is an experimental contract.",
    "kind": "dev",
    "methods": {
      "addProposal(string)": {
        "details": "Limitation des propositions pour empcher faille DOS. Nombre 5 arbitraire ici.",
        "params": {
          "_desc": "string: description of proposal"
        }
      },
      "addVoter(address)": {
        "details": "This can be triggered by owner only",
        "params": {
          "_addr": "Address of the voter"
        }
      },
      "endProposalsRegistering()": {
        "details": "This can be triggered by owner only"
      },
      "endVotingSession()": {
        "details": "This can be triggered by owner only"
      },
      "getOneProposal(uint256)": {
        "details": "This can be triggered by voters whitelisted only",
        "params": {
          "_id": "Id of the proposal"
        },
        "returns": {
          "_0": "Proposal"
        }
      },
      "getVoter(address)": {
        "details": "Set address only as voters",
        "params": {
          "_addr": "Address of the voter"
        },
        "returns": {
          "_0": "Voter"
        }
      },
      "owner()": {
        "details": "Returns the address of the current owner."
      },
      "renounceOwnership()": {
        "details": "Leaves the contract without owner. It will not be possible to call `onlyOwner` functions anymore. Can only be called by the current owner. NOTE: Renouncing ownership will leave the contract without an owner, thereby removing any functionality that is only available to the owner."
      },
      "setVote(uint256)": {
        "details": "This can be triggered by voters whitelisted only",
        "params": {
          "_id": "int: id of the proposal to vote"
        }
      },
      "startProposalsRegistering()": {
        "details": "This can be triggered by owner only"
      },
      "startVotingSession()": {
        "details": "This can be triggered by owner only"
      },
      "tallyVotes()": {
        "details": "This can be triggered by owner only"
      },
      "transferOwnership(address)": {
        "details": "Transfers ownership of the contract to a new account (`newOwner`). Can only be called by the current owner."
      }
    },
    "title": "Systme de vote, cours Alyra",
    "version": 1
  },
  "userdoc": {
    "kind": "user",
    "methods": {
      "addProposal(string)": {
        "notice": "adding proposal to blockchain"
      },
      "addVoter(address)": {
        "notice": "add a address to the whitelisted voters"
      },
      "endProposalsRegistering()": {
        "notice": "move from registering proposals to end registering proposal status"
      },
      "endVotingSession()": {
        "notice": "move from voting status to end voting status"
      },
      "getOneProposal(uint256)": {
        "notice": "calls proposal details"
      },
      "getVoter(address)": {
        "notice": "calls voter details"
      },
      "setVote(uint256)": {
        "notice": "register a vote for a proposal"
      },
      "startProposalsRegistering()": {
        "notice": "move from registering voter to registering proposal status"
      },
      "startVotingSession()": {
        "notice": "move from end registering proposals to voting  status"
      },
      "tallyVotes()": {
        "notice": "count vote then move from end voting status to tally vote status"
      }
    },
    "version": 1
  }
}